:020000040800F2
:10000000000003202D0600087D2000087F20000846
:1000100081200008832000088520000800000000DF
:10002000000000000000000000000000F15A00087D
:100030008720000800000000815B000811540008C0
:100040007D0600087D0600087D0600087D06000884
:100050007D0600087D0600087D0600087D06000874
:100060007D0600087D0600087D0600087D06000864
:100070007D0600087D0600087D0600087D06000854
:100080007D0600087D0600087D0600087D06000844
:100090007D0600087D0600087D0600087D06000834
:1000A0007D0600087D0600087D0600087D06000824
:1000B0007D0600087D0600087D0600087D06000814
:1000C0007D0600087D0600087D0600087D06000804
:1000D0007D0600087D0600087D0600087D060008F4
:1000E0007D0600087D0600087D0600087D060008E4
:1000F0007D0600087D0600087D0600087D060008D4
:100100007D0600087D0600087D0600087D060008C3
:100110007D0600087D060008892000087D0600088D
:100120007D0600087D0600087D0600087D060008A3
:100130007D0600087D0600087D0600087D06000893
:100140007D0600087D0600087D0600087D06000883
:100150007D0600087D0600087D0600087D06000873
:100160007D0600087D0600087D0600087D06000863
:100170007D0600087D0600087D06000800000000DE
:100180007D0600087D0600087D0600087D06000843
:100190007D0600087D0600087D0600087D06000833
:0C01A000952000087D060008A120000842
:1001B00010B5054C237833B9044B13B10448AFF3A1
:1001C00000800123237010BD6401002000000000A6
:1001D000E0F1010808B5034B1BB103490348AFF335
:1001E000008008BD0000000068010020E0F1010867
:1001F00001F0FF01102A2BDB10F0070F08D010F8D8
:10020000013B013A8B422DD010F0070F42B3F6D1DB
:10021000F0B441EA012141EA014122F007047FF0F4
:1002200000070023F0E80256083C85EA010586EA4B
:10023000010685FA47F5A3FA87F586FA47F6A5FA87
:1002400087F68EB9EED1F0BC01F0FF0102F0070293
:1002500032B110F8013B013A83EA010313B1F8D13E
:100260000020704701387047002D06BF354603381F
:10027000073815F0010F07D1013015F4807F02BF58
:10028000013015F4C03F0130F0BC0138704700BFA9
:100290007BB972B90029BEBF00204FF0004106E0D3
:1002A00008BF00281CBF6FF000414FF0FF3000F086
:1002B000BBB9ADF1080C6DE904CE002909DB002BB8
:1002C0001ADB00F04DF8DDF804E0DDE9022304B0AC
:1002D0007047404261EB4101002B1BDB00F040F80E
:1002E000DDF804E0DDE9022304B0404261EB4101A6
:1002F000524263EB43037047524263EB430300F007
:100300002FF8DDF804E0DDE9022304B0404261EBA0
:1003100041017047524263EB430300F021F8DDF8DE
:1003200004E0DDE9022304B0524263EB430370476B
:1003300053B94AB9002908BF00281CBF4FF0FF314C
:100340004FF0FF3000F070B9ADF1080C6DE904CE4C
:1003500000F006F8DDF804E0DDE9022304B07047A0
:100360002DE9F047089E0D4604460F46002B4AD162
:100370008A42944665D9B2FA82F343B102FA03FC89
:10038000C3F120029F4020FA02F217439C404FEA3B
:100390001C4E1FFA8CF5B7FBFEF1220C0EFB1177F9
:1003A00042EA074201FB05F090420AD91CEB020227
:1003B00001F1FF3780F01C81904240F2198102392F
:1003C0006244121AA4B2B2FBFEF00EFB102244EA01
:1003D000024400FB05F5A5420AD91CEB040400F118
:1003E000FF3280F00781A54240F204816444023864
:1003F00040EA0140641B00211EB1DC400023C6E935
:100400000043BDE8F0878B4208D9002E00F0ED8054
:100410000021C6E900050846BDE8F087B3FA83F17C
:10042000002949D1AB4202D3824200F2F880841AFB
:1004300065EB030201201746002EE2D0C6E9004713
:10044000DFE702B9FFDEB2FA82F3002B40F09080C2
:100450008A1A4FEA1C471FFA8CFE0121B2FBF7F5FE
:1004600007FB1520220C42EA00420EFB05F09042E9
:1004700008D91CEB020205F1FF3802D2904200F2CB
:10048000CB804546121AA4B2B2FBF7F007FB10224C
:1004900044EA02440EFB00FEA64508D91CEB040406
:1004A00000F1FF3202D2A64500F2BB801046A4EB59
:1004B0000E0440EA05409FE7C1F120078B4022FA75
:1004C00007FC4CEA030C05FA01F420FA07F3FD409F
:1004D0004FEA1C492343B5FBF9F81FFA8CFE09FBD0
:1004E00018551C0C44EA054408FB0EF5A54202FA17
:1004F00001F200FA01F00BD91CEB040408F1FF3AF9
:1005000080F08880A54240F28580A8F1020864440A
:10051000641B9DB2B4FBF9F309FB134445EA0444A0
:1005200003FB0EFEA64508D91CEB040403F1FF35BE
:100530006CD2A6456AD9023B644443EA0843A3FB54
:100540000295A4EB0E04AC42C846AE4656D353D037
:1005500056B1B0EB080264EB0E0404FA07F7CA4088
:10056000CC401743C6E9007418460021BDE8F08767
:10057000C3F1200102FA03FC20FA01F225FA01F18D
:100580009D402A434FEA1C471FFA8CFEB1FBF7F04F
:1005900007FB1015110C41EA054100FB0EF58D42D9
:1005A00004FA03F408D91CEB010100F1FF382FD243
:1005B0008D422DD902386144491B92B2B1FBF7F547
:1005C00007FB151142EA014205FB0EF1914208D9E1
:1005D0001CEB020205F1FF3816D2914214D9023DFC
:1005E0006244521A45EA004138E73146304608E78E
:1005F0003946E6E61046FBE64845A9D2B9EB0208C3
:1006000065EB0C0E013BA3E74546EAE72B4694E772
:100610004046D1E7D0467BE7023D624432E70846D8
:100620000AE76444023842E7704700BFDFF834D07D
:10063000002103E00C4B5B58435004310B480C4B3A
:1006400042189A42F6D30B4A02E0002342F8043BD8
:10065000094B9A42F9D302F07BFC1EF045F800F0FA
:10066000F5FF7047000003206C1B05080000002008
:100670006401002064010020F02F0120FEE7704794
:1006800008B500F061FDBDE8084000F0E5BC00F0F1
:100690005DBD704710B5042104461CF030FE2046B5
:1006A00010BD000038B50C4B0C4C18800C4B822050
:1006B00019806368984740F6110398420AD1094DA2
:1006C00023682C60822098472B688220DB6898473B
:1006D000002038BD0120FCE7800100204C000020F4
:1006E00082010020840100204FF4A071F020FFF768
:1006F000D9BF0000F7B5334D2B6804461B69822033
:10070000984780B2208000284AD02B680DF106025D
:100710005B6901A982209847BDF8063040F67462F3
:1007200093423FD9ADF80620BDF80630D21A92B2F6
:100730000A2A3DD90B23B2FBF3F2234B1B889A42C2
:1007400001D9013B9AB2BDF8043040F6B8318B4272
:1007500030D8C3F571630E339BB20F21B3FBF1F3B5
:100760001A4909888B4201D901398BB2184E194DAB
:1007700030682F68834281B28CBF591AC91AB8B247
:10078000BA428CBF101A801A89B280B2014405297E
:10079000C8BF33603368C8BF2A6063802B68A380FA
:1007A00003B0F0BDB32B9CBFB423ADF80630BBE75C
:1007B0000022C8E7C3F56D6308339BB20E2BCCD87B
:1007C0000023D3E784010020820100208001002063
:1007D000880100208C01002037B568460D4614467C
:1007E000FFF788FFBDF8000030B1BDF802302B6084
:1007F000BDF804302360012003B030BD032821D8A8
:10080000DFE800F0020B12190F4B1A68B2FA82F2FD
:10081000520904210D4802F033BE0B4B5A68B2FA5C
:1008200082F252090821F5E7074B9A68B2FA82F280
:1008300052091021EEE7044BDA68B2FA82F252094B
:100840002021E7E7704700BF900100200010024020
:10085000032821D8DFE800F0020B12190F4B1A68A9
:10086000003A18BF012204210D4802F009BE0B4BCB
:100870005A68003A18BF01220821F5E7074B9A6829
:10088000003A18BF01221021EEE7044BDA68003A63
:1008900018BF01222021E7E7704700BF9001002028
:1008A0000010024003280DD8DFE800F00206080A15
:1008B0000421054802F0E9BD0821FAE71021F8E714
:1008C0002021F6E7704700BF0010024008B503285A
:1008D00011D8DFE800F0020A0C0E0421074802F0EC
:1008E000C9FD431E5842584108BD0821F6E71021B2
:1008F000F4E72021F2E70020F3E700BF00100240F8
:1009000070B5084D00240126E0B2FFF7DFFF18B1F3
:100910002B68012B18BF2E600134052C05F104054E
:10092000F2D170BD90010020012380F8781080F88A
:100930007930704700207047034B4164003918BF7D
:1009400001211970704700BFB723012000207047B4
:10095000836B0BB10846184770474FF6FF7070471E
:10096000406803689B6918477047704770470000EC
:1009700010B5044600F000FD23680349D3F88C301D
:100980002046BDE810401847000000D008B50368B5
:100990000446D3F880309847236820469B6F9847D9
:1009A00000F0ECF8236820461B6F9847292001F0DF
:1009B00085F800F0E3F8236820461B6F9847F8E7B6
:1009C00010B5044607F078FE23682046D3F8AC3013
:1009D000BDE81040184700F0B1BC00F0B5BC00F015
:1009E000E9BC00F087BC00F005BD00F0EFBC00F0F2
:1009F0008BBC07F0CDB810B57C2104461CF07FFC01
:100A0000204610BD90F87A301BB1406803681B681F
:100A1000184718467047000010B590F8341090F849
:100A200078400C4B8C421A7809D03AB90A4A0B49E3
:100A30001488088810800C8001221A7010BD002ACA
:100A4000FCD0054A05491488088810800C800022D3
:100A5000F3E700BFB0230120AC230120AE23012027
:100A600070B50D46194635B9094B0A4A0A4840F295
:100A7000D2211DF08BFBC0E90F52084B003A18BF82
:100A800001221A700368BDE87040D3F88C30184713
:100A900050F2010888F20108D6F20108B6230120BD
:100AA00008B5094B1B888B4203D8084B1B8893421F
:100AB00005D9074B074A08489E211DF067FB074BE5
:100AC0001980074B1A8008BDAC230120AE230120FA
:100AD0001BF301087EF30108D6F20108B2230120BE
:100AE000B4230120012108B50022084604F01DFDB1
:100AF0000A4B186028B90A4B0A4A28210A481DF0F7
:100B000045FB00220421012004F0ACFD074B1860D6
:100B100018B9074B034A2C21F0E708BDA4010020B7
:100B20009CF40108E5F4010814F50108A001002077
:100B300061F50108024B4FF0FF31186804F03FBD2A
:100B4000A4010020014B186804F064BDA40100203A
:100B5000024B0021186804F032BD00BFA401002040
:100B6000FFF7F0BF03480449006800231A4604F069
:100B7000B4BD00BFA00100200400002013B5084C44
:100B800000231A4601A9206804F0D7FD20684FF021
:100B9000FF33002201A904F0D0FD02B010BD00BF58
:100BA000A001002003685B6C1847012070470368B0
:100BB0009B6A184740F2EF3070470000054B036016
:100BC000054B4FF08062C3F88820BFF34F8FBFF30F
:100BD0006F8F704700F7010800E100E010B5044690
:100BE0004FF45A61FFF7EAFF20461CF088FB2046CD
:100BF00010BD000082B0002301930D4B1A6B42F42C
:100C000000021A631A6B02F400020192019A1A6937
:100C100042F400021A611A6922F400021A61054BBB
:100C2000054A1A61054B4FF080629A6002B0704726
:100C3000003802408C130020410C000800E100E065
:100C4000024B1B68586803685B691847B82301208A
:100C500070B5044625460A4B0C30002660602672AB
:100C6000667245F8203B6022294607F07DFE04F5B8
:100C70005A63EE602435AB42FBD1204670BD00BF05
:100C800000F7010808B50B290BD8DFE801F01206C0
:100C9000100A0A0A0A0808080808012008BD0520E9
:100CA000FCE7054B054A064865211DF06FFA002058
:100CB000F4E70220F2E700BFA3F50108BEF5010842
:100CC00008F6010808B50A2909D8DFE801F010067E
:100CD0000E080808080606060600012008BD054B98
:100CE000054A064886211DF051FA0020F6E7022049
:100CF000F4E700BFA3F5010853F6010808F6010860
:100D00002DE9F84391F81D800C4641460746FFF750
:100D1000B9FF94F81E90054649463846FFF7B2FFE2
:100D2000494606463846FFF7CDFFA18A628B434B02
:100D3000521A1A649A61228B521A1A61E28A586313
:100D400042EA01425A6420696268D863DA6027681F
:100D5000802F28D0227F0FD8202F65D0402F63D03E
:100D6000042F1AD0354B45EA026545F40035C845D5
:100D7000DD615FD0324A44E0B7F5807F04D0B7F53B
:100D8000007FEFD12F4900E02F4941EA0262DA618A
:100D9000E2681A625E62586132E045EA026242F439
:100DA0000032DA61F6E7A7683A1DDA62217F3A7805
:100DB00045EA016545F40035DD615E62586142B186
:100DC000012A21D0214B224A22484FF488711DF07C
:100DD000DDF9DA69798822F47F42013922F01002C4
:100DE00042EA0122DA610121144BDA6942F0200261
:100DF000DA61DA699206FCD410229A600029B9D02F
:100E0000154A1A60BDE8F883DA69788822F47F42CF
:100E1000013822F0100242EA0022FF3942F01002AB
:100E200018BF0121DA61DFE745EA0262034B42F4B1
:100E30000032B6E740F20122E3E700BF00B0024013
:100E400001020100090002000A0002009EF60108EA
:100E5000B8F6010808F601080102020038B50C4690
:100E6000897FFFF72FFFA58AE28A164B2169586315
:100E700042EA05425A64628BD963521B1A642568A0
:100E8000082D0ED19A611A615862207F0E4A42EAFB
:100E90000062DA61E2681A620C4A5961D9601A602C
:100EA00038BD0022D8611A61E1680A0A480902F4D3
:100EB000784200F4FC600243C1F3C4010A439A6320
:100EC000034AECE700B00240090001000102020001
:100ED00001020300034B1A68D207FCD423229A6054
:100EE000704700BF00B0024030B50F4C2568ED07D9
:100EF000FCD423250904A56041F001010225FF2B44
:100F000065636164E0630AD00849656241EA03638E
:100F1000E361074B22626061E060236030BDE56100
:100F2000039BA363034BF8E700B0024009000100F4
:100F30000100020001000300012070470C207047EF
:100F40000C2303FB0100083070470C2303FB010056
:100F5000083070470120704798207047982303FBA2
:100F6000010008307047982303FB010008307047E8
:100F7000012070471020704700EB011008307047C7
:100F800000EB011008307047084601F07BBA000002
:100F900010B5034B0360044606F04FFB204610BD1E
:100FA000B8F7010810B50446FFF7F2FF20461421F8
:100FB0001CF0A5F9204610BD10B5034B0360044694
:100FC00006F03BFB204610BD84F7010810B504462F
:100FD000FFF7F2FF2046A0211CF091F9204610BD3A
:100FE00010B5034B0360044606F027FB204610BDF6
:100FF00050F7010810B50446FFF7F2FF204618210C
:101000001CF07DF9204610BD10B5084B044640F891
:10101000CC3BFFF7BDFF04F12C00FFF7CDFF04F13F
:101020001400FFF7DDFF204610BD00BFECF70108FC
:1010300008B50248FFF7E8FF08BD00BFAC0100207B
:1010400010B50446FFF7E0FF20464FF410711CF086
:1010500056F9204610BD00002DE9F34101F094F847
:10106000054601F095F8002401462346284622460D
:1010700000940DF0A9FF274B274A1A60204601F083
:101080000FFC264B264A274D9A6027480DF004FF97
:101090002B68BFF35B8FDB0735D428461CF031F992
:1010A00088B3224C224B236004F1E40604F11400BF
:1010B00004F12C0804F1CC076060C4F80880E760F4
:1010C000266106F0BBFA1B4B6361404606F0B6FA98
:1010D000194BE362384606F0B1FA184BC4F8CC302D
:1010E00004F1E00001F052FC224604F1E001304638
:1010F00001F042FC304601F0C5F911481DF064F8DA
:1011000028461CF00AF90F4802B0BDE8F041FFF78D
:101110002FBC00BF1C240120281200202C1200200C
:10112000EC030020A801002008000020AC010020F2
:10113000ECF7010850F7010884F70108B8F7010837
:1011400031100008AC110020704700000148FFF783
:101150001DBC00BFAC11002070B5244E244C254DA1
:10116000254B23603046FFF773FD284612F0F8F94F
:1011700022480CF0CBF8224B2248DC6000224FF4CE
:101180008071C3E9121220491A86C3E91A121F4955
:1011900099671F4983F858200B60F02101801D4892
:1011A0005A6601801C4883F870204FF4A071C3E98F
:1011B0000422C3E90622C3E90822C3E90A22C3E9DB
:1011C0000E22C3E91022C3E91422C3E917225A6789
:1011D000C3E9016501801148018011490A700122AB
:1011E00083F834200F4A1A6070BD00BF0C04002041
:1011F000080400202C12002040F20108EC0300201B
:10120000AC110020AC23012001000001000001010D
:10121000B8230120B2230120AE230120B4230120F2
:10122000B0230120CCF301080148FFF7C7BC00BF81
:101230000C0400200020704781807047C1807047F7
:101240000181704741817047704770477047704710
:10125000704710B4C4880368121B84885B6D091B37
:1012600012B25DF8044B09B218474FF6FF73838141
:101270004FF0FF3303621368C3611060704790F84A
:1012800025201AB190F8242002B118607047002080
:1012900070478B88838001207047704780F8261044
:1012A000704790F82600704710B50022B1F9084049
:1012B000B1F90A10028042808480C18010BD0022F2
:1012C000028042808280C28070470177704780ED43
:1012D000080A704780F82410704780F8251070477E
:1012E00001207047983070478C30704784307047C9
:1012F00070470000034B902283F85A2383F8582349
:10130000704700BF00E100E0094A0A49D3680A4873
:10131000C3F30A03013B9BB20B801169C1F30A01BD
:10132000013901801364536B43F001035363704729
:1013300000680140BA120020B8120020014BD3F817
:10134000AC00704700680140024B0122C3F8AC10AA
:101350005A627047006801407047704710B52C21F1
:1013600004461BF0CCFF204610BD10B5BC2104463E
:101370001BF0C5FF204610BD70B5044606F05DFCAD
:1013800023685D6E0AF096FE01462046A847236852
:10139000054AD3F888502046AC460023BDE870408B
:1013A000A2F51631604700BF00B004D006F02CBC97
:1013B00006F036BC06F0F2BB06F053BD90F82520CF
:1013C00012B103685B69184770470000084B4FF083
:1013D0008062C3F88820BFF34F8FBFF36F8F4FF049
:1013E0008072C3F88820BFF34F8FBFF36F8F7047B1
:1013F00000E100E0034B4FF080629A604FF0807292
:101400009A60704700E100E070B50023124E8380BF
:10141000124B0360336893F8582005460AB1D86C24
:1014200000B998680368DB6A98473368B0FA80F4BB
:10143000D86C640930B10368DB6A9847002808BF9C
:1014400044F001042CB9064B064A07482C211CF035
:101450009DFE284670BD00BFB8230120FCF801089E
:10146000F8F7010856F801088FF8010870B5244E06
:101470003568BFF35B8F15F001053FD130461BF097
:1014800040FF00283AD01F4C1F4B256104F1340067
:10149000C4E90035C4E90255E584A562A5850CF0D0
:1014A00094F904F1580008F059FE184BA365204642
:1014B000174B40F8843BFFF7A7FF164BC4F8843066
:1014C0002433C4F88C306423C4E928350023C4F8DD
:1014D000AC30C4F8B030C4F8B430C4F8B8300E48FA
:1014E0000E4BC4F89050C4F89C50C4F8A850C4F8EF
:1014F00098301CF069FE30461BF00FFF014870BDAC
:10150000B4120020BC120020D80202081CF9010805
:1015100094F901088C020208F11200086C0202081A
:1015200010B5144C236823B3134B144A1B6C118859
:101530008B4213D1124B198802F0AEFD226892F84B
:101540006A30013382F86A30FFF70CFB206807F03D
:10155000B3F8BDE810400020FFF750B902F09CFD41
:10156000206803681B6A9847BDE810400020FFF719
:101570006FB910BDB823012000680140BA120020E5
:10158000B812002007B5064BADF806001B680548E9
:1015900001220DF1060103F0E1FA03B05DF804FB4E
:1015A00010000020FC14002008B5642003F0B1FFF7
:1015B000FBE7000030B595B0102200210AA81CF00E
:1015C000EAFF1422002103A81CF0E5FF00241D4BB4
:1015D00001941A6C42F080521A641B6C03F0805321
:1015E0000193019B184B02941A6842F440421A601E
:1015F0001B6803F4404302930122029B4FF48033A3
:10160000CDE9082302254FF48003CDE90E530821CC
:101610004FF4A873CDE9101308A80423139312956F
:1016200002F058FD0F23CDE903354FF4A0504FF4DD
:101630008053CDE90603052103A8059402F024FF99
:1016400015B030BD003802400070004080B59AB03F
:1016500001F08CFCFFF7AEFF142200210DA800243E
:101660001CF099FFC04B00941A6BC048C04D42F06B
:1016700010021A631A6B02F010020092009A019491
:101680001A6B42F020021A631A6B02F020020192D8
:10169000019A02941A6B42F080021A631A6B02F0EC
:1016A00080020292029A03941A6B42F004021A63B7
:1016B0001A6B02F004020392039A04941A6B42F02C
:1016C00001021A631A6B02F001020492049A059453
:1016D0001A6B42F002021A631A6B02F002020592C0
:1016E000059A06941A6B42F040021A631A6B02F0D4
:1016F00040020692069A07941A6B42F008021A6397
:101700001B6B03F00803079322463C21079B01F063
:10171000B7FE98482246042101F0B2FE22469648C0
:101720004FF4405101F0ACFE01264FF003083C237A
:101730008E48CDF840800DA902274FF00409CDE96D
:101740000D360F9401F0B0FD8A480F940DA9CDE934
:101750000D96109701F0A8FD0DA94FF4405386484F
:10176000CDE90D36CDE90F4701F09EFD8348844B4E
:10177000036001F08DFC834A834B2C62C5E9002392
:1017800028464FF48043C5E90434C5E90244C5E95D
:10179000064402F081F81021284602F0C5FA2146DD
:1017A000284602F0E0FA7948794984624FF482735E
:1017B000C0E900134FF400751823C0E906530A234B
:1017C000744DC362C0E90244C0E90444C0E908445E
:1017D00003F068F9704B0D974FF0100CC5E9003617
:1017E0004023C5E904C34FF4C073C5E906344FF480
:1017F0000063C5E908344FF40053AB620DA9072319
:101800002846CDE90E39CDE910384FF0080AC5E970
:101810000249CDE9127703F029F84FF6FF7209A9C2
:101820002846CDE90AA6089409960C9403F03EF8E0
:10183000304601F0C7FB4FF6FF7209A92846CDE9F3
:10184000097ACDE90B6403F031F84FF6FF7209A96C
:101850002846CDE9098ACDE90B9403F027F84FF427
:101860000C730893089B0C934FF6FF7209A9284646
:10187000CDE9099A0B9603F019F840F26A5128460F
:1018800003F032F8342221460DEB02001CF083FEF7
:10189000424D434BAC86C5E900340923C5E9053602
:1018A0001D2340F20D1EC5E9073840F24313C5E978
:1018B00009E3284640F2471340F21718C5E90B83A5
:1018C000C5E902442C6185F8364002F0EDFAFF21AB
:1018D000F022CDE912144FF4806905214FF4A07372
:1018E000CDE90E24CDE91491CDE916420DA9224689
:1018F0002846CDE910372B4D18930D94ADF8644070
:101900008DF8664002F09BFB274B2B601B689847C5
:101910002B68264DDB689847254BC5E90A47C5E982
:101920000C442846C5E90034C5E9027401F0C0FB47
:101930003146284601F074FCFEF7A2FEFEF79FFE3A
:1019400003F074FD1B4A1C48214603F09BFD1B4B12
:101950001B4A186021461B4803F094FD1A4B18607F
:1019600003F076FDFEE700BF0038024000100240A1
:10197000CC13002000080240000C02408413002019
:1019800000300240005C0040A0860100FC140020F2
:1019900000500140C8140020400100A02014002085
:1019A000006801407C130020140000208C130020EC
:1019B00000B0024014FA0108A915000880130020A5
:1019C000F0F901088F06000878130020704770476F
:1019D0007FB5094B8DF817201B6802930DF1170294
:1019E0000123009201930A460146044801F0FCFFDE
:1019F00007B05DF804FB00BF0C000020CC130020F2
:101A00007FB500238DF81730084B1B6802930A46F8
:101A100001230DF11701009101930146044802F0E2
:101A200073F89DF8170007B05DF804FB0C00002068
:101A3000CC1300201FB5084C24680092CDE9013476
:101A40000A4601230146054802F05EF8003818BF37
:101A5000012004B010BD00BF0C000020CC130020FA
:101A600001F0B0BA08B506480022042101F008FDD3
:101A7000BDE8084002480122042101F001BD00BF79
:101A80000008024038B50B4D044601220A484FF4C5
:101A9000005101F0F5FC00220421284601F0F0FC81
:101AA0002046FFF76FFD28460122BDE8384004219B
:101AB00001F0E6BC00080240000C024038B50B4DB6
:101AC000044600220A484FF4005101F0D9FC0022DC
:101AD0000421284601F0D4FC2046FFF753FD284698
:101AE0000122BDE83840042101F0CABC00080240D0
:101AF000000C0240F7B5144E144F05460C46304614
:101B00000022042101F0BCFC00224FF400513846B1
:101B100001F0B6FC2846FFF735FD0D4B0D481B685C
:101B2000224601A903F0C3F9384601224FF40051BF
:101B3000019C01F0A5FC30460122042101F0A0FC2B
:101B4000204603B0F0BD00BF00080240000C024078
:101B500010000020FC14002001F034BA0268034B8E
:101B60009A4201D101F01CBA704700BF001000403A
:101B70007047000082B00E4B00220092596C41F475
:101B800080415964596C01F480410091009901929F
:101B9000196C41F0805119641B6C03F08053019360
:101BA000019B0F216FF0010002B001F031BA00BFBC
:101BB000003802400268094B9A4282B00BD10023E0
:101BC0000193074B1A6B42F480521A631B6B03F4A8
:101BD00080530193019B02B0704700BF0030024068
:101BE0000038024007B50F4B02689A4216D1002216
:101BF000A3F5F0430192196B41F4000119631B6BCB
:101C000003F40003019305215A20019B01F000FA1F
:101C10005A2003B05DF804EB01F02CBA03B05DF874
:101C200004FB00BF00B002402DE9F043044689B038
:101C30001422002103A81CF0AEFC2268244B9A4217
:101C400043D1244C244800250095236B43F0040322
:101C50002363236B03F004030093009B0195236B24
:101C600043F001032363236B03F001030193019B02
:101C70004FF012094FF400734FF0010803270426B8
:101C800003A9CDE90339CDE90587079601F00CFBDF
:101C90004FF480731148079603A9CDE90339CDE9C4
:101CA000058701F001FB0295236C43F400032364D4
:101CB000236C03F400030293029B236A43F40003A2
:101CC0002362236A23F40003236209B0BDE8F08392
:101CD000005C004000380240000802400000024062
:101CE000F0B599B004461422002107A81CF053FC5B
:101CF00030220DEB020000211CF04DFC22685E4BEF
:101D00009A4240F0B78008230C93C0231093042319
:101D100012930CA84FF40033159302F07DFC08B128
:101D2000FFF726FF554B5648002400945A6C42F0AA
:101D300080625A645A6C02F080620092009A0194A8
:101D40001A6B42F020021A631A6B02F02002019211
:101D5000019A02941A6B42F001021A631A6B02F0A4
:101D600001020292029A03941A6B42F002021A6371
:101D70001A6B02F002020392039A04941A6B42F067
:101D800040021A631A6B02F040020492049A05940E
:101D90001A6B42F004021A631A6B02F004020592F5
:101DA000059A06941A6B42F008021A631B6B03F043
:101DB0000803069302250E26069B0B964FF48063BC
:101DC00007A9CDE90735CDE9094501F06DFA41F6DE
:101DD00058032C480B9607A9CDE907350927CDE90B
:101DE000094501F061FA032327480B9707A9CDE9BC
:101DF0000735CDE9094501F057FA4FF470632248E1
:101E00000B9607A9CDE90735CDE9094501F04CFA54
:101E10004FF40C631D480B9607A9CDE90735CDE9B2
:101E2000094501F041FAC02319480B9607A9CDE9ED
:101E30000735CDE9094501F037FA082315480B9617
:101E400007A9CDE90735CDE9094501F02DFA4FF491
:101E5000A0530E480B9707A9CDE90735CDE90945F1
:101E600001F022FA58202246052101F0D1F858202D
:101E700001F000F919B0F0BD0068014000380240DF
:101E8000001402400000024000040240001802401A
:101E900000080240000C024010B5044688B014222D
:101EA000002103A81CF077FB2268144B9A4223D12F
:101EB00003F56843002101915A6C114842F48012E5
:101EC0005A645A6C02F480120192019A02911A6BC0
:101ED00042F020021A631B6B03F020030293029B63
:101EE0004FF4607202230321CDE903230523CDE9DA
:101EF000061303A901F0D8F908B010BD0050014045
:101F0000001402402DE9F04186B0002303932B4BCF
:101F10001C68002C4FD14FF00108C3F80080284BFB
:101F200000949A6B274842EA08029A639B6B03EA83
:101F300008030093022703260C25009B01A94FF6F6
:101F40003F03CDE90137CDE9046501F0ADF91E4845
:101F5000059501A9CDE90187CDE9034601F0A4F972
:101F600048F233131948059501A9CDE90137CDE9A8
:101F7000034601F099F94FF683731548059501A9B9
:101F8000CDE90137CDE9034601F08EF94CF2037338
:101F90001048059501A9CDE90137CDE9034601F0C7
:101FA00083F960230C48059501A9CDE90137CDE9F6
:101FB000034601F079F906B0BDE8F0815415002020
:101FC000003802400014024000080240001802409D
:101FD00000100240000C02400004024070B588B0BE
:101FE00000230293204B1A6C42F010021A641B6CFF
:101FF00003F010030293054601A903A8029B02F017
:10200000EDFA069B4BBB02F0D9FA184E184B336021
:1020100040F2E733F360174BB0FBF3F3013B73601F
:10202000304600233361B360B36103F025F9044601
:1020300080B9304602F0E2FF044658B9362001F07C
:1020400019F80F2D0DD822462946362000F0E0FF62
:10205000094B1D60204608B070BD02F0AFFA400089
:10206000D3E70124F6E700BF0038024058150020EE
:102070000010004040420F007C0000207047FEE747
:10208000FEE7FEE7FEE77047014802F0F5BF00BF3C
:1020900058150020014801F075BF00BF2014002032
:1020A000014801F033B800BF8C13002001207047B5
:1020B00008B51CF013FB162303604FF0FF3008BD7A
:1020C00008B51CF00BFB16230360FEE770B50D4648
:1020D00014460E46731B9C4201DC204670BDAFF3D4
:1020E000008006F8010BF5E770B50D4614460E4664
:1020F000731B9C4201DC204670BD16F8010BAFF348
:102100000080F5E74FF0FF3070474FF400534B600D
:102110000020704701207047002070470A4A11686C
:1021200008B5034609B909491160106869460344B6
:102130008B4206D91CF0D2FA0C2303604FF0FF301B
:1021400008BD1360FCE700BFA0150020F02F0120A0
:10215000704710B5042104461BF0D1F8204610BD8D
:10216000012908B506D0022908D059B900F0D6FBDC
:10217000006808BD00F0D2FB4068FAE700F0CEFB33
:102180008068F6E70020F4E7004870474CFA010841
:102190000120704713B5002451B1036801948DF8F4
:1021A000034001AA9C680DF10303A04702B010BDD3
:1021B0000846FBE7C0897047008A7047C0887047AF
:1021C00080887047807A00F07F007047807AC0096D
:1021D00070470020704700009FED010A704700BF64
:1021E000000000007047704700F598730868496860
:1021F00003C37047704770474160704770470000E5
:10220000064BC0F84C310023C0F8503100F5A273E2
:10221000C0F84801C0F84031704700BFC52200082F
:102220000123037270477047704710B4C268416859
:102230005410034601EB6200D20748BF0A599B685D
:102240005DF8044B48BFD358184743682BB18368E7
:102250002BB9C06800F00100704718467047012094
:10226000704710B50C2104461BF049F8204610BDFC
:1022700010B5102104461BF042F8204610BD10B5E1
:102280004FF4AE7104461BF03AF8204610BD10B56D
:1022900009F010FF0368BDE81040DB6B184710B56C
:1022A0000446D0F8400158B10368DB68984738B15C
:1022B000D4F8400103689B6898470023C4F8403174
:1022C00010BD00002DE9F14FD0E9555A0746A86826
:1022D00003681B6A9847972805D8464B464AA321AE
:1022E00046481BF053FF686803681B6A98470F282D
:1022F00003D8434B404AA421F2E7E86803681B6A0D
:1023000098470B2803D83F4B3B4AA521E8E709F043
:10231000D1FEDFF8F890043009F0F1FED9F80000A2
:1023200010B10368DB689847D9F8000010B1036862
:102330001B689847DFF8D880D8F8000010B1036810
:102340005B699847D7F83C0110B103685B68984710
:10235000D8F8000010B103681B689847D7F83C0113
:1023600010B103689B689847E868036800215B6ABE
:1023700098474FF0000B244B03600446C0F804B0AC
:1023800080F808B0A868036859465B6A9847064613
:1023900000F032FB6868036859465B6A984731462B
:1023A000054600F005FBC9F80040C7F83C51C8F8E5
:1023B0000060E5B12B1DCAF800303368C5F808A0ED
:1023C0003046DB68F56398472B6828461B689847BA
:1023D000214630460BF05CFE236820461B69984777
:1023E00023685B69204601B0BDE8F04F18472B46D3
:1023F000E1E700BF60FA0108EEFA0108F2FB01080C
:1024000039FC0108DCFC0108F4FD0108002401206E
:10241000FC230120044B1B6893F858200AB1D86CA8
:1024200000B99868704700BFB823012070B5044612
:102430000D46164609F000FF0E4A14600E4A22604F
:102440000E4A0023C4E95123C4E95333C4E94F338E
:102450000B4B1868036801219B68C4E955659847D0
:10246000FFF7D8FF12F0ADFEFFF7D4FF12F024FF04
:10247000204670BD0C240120A0FD010888FD010844
:10248000B8230120064BC0F84C310023C0F850316E
:1024900000F5A273C0F84801C0F84031704700BF92
:1024A000C5220008406A7047806A704770478B8871
:1024B000C0690A68DB0A50F823001044704710B561
:1024C000C2B1137BB3B1547BD27A240204F4E0642A
:1024D0001443026A98B202EB840213888B4202D141
:1024E00092F9020010BD05D8013880B204320028EC
:1024F000F3D1F7E70020F5E710B52C2104461AF0D8
:10250000FEFE204610BD000030B58BB00446BDF87D
:1025100060500895BDF85C5007959DF850500695A1
:102520009DF84C5005959DF8485004959DF84450F1
:1025300003959DF8405002959DF83C500195BDF8DB
:10254000385000950BF0FEF9064B2360159BE361B4
:10255000169B2362199B63621A9BA36220460BB0F1
:1025600030BD00BF18FE01087047704770477047C4
:1025700070477047704710B5982104461AF0BFFEA7
:10258000204610BD70B5036804461B6B154698477E
:102590002368294620465B6BBDE870401847000061
:1025A0002DE9F341044626460BF0C6FB00252D4BD2
:1025B000E56346F8403B2C4B2566C4E910354FF4E3
:1025C0008072FF2304F16C07A4F8642084F866305D
:1025D000A4F890204FF6FF73244AA4F8923084F8B0
:1025E0009430E26601A93846C4E91255C4E914558D
:1025F000C4E91655C4E91C55C4E91E55C4E9205563
:10260000C4E92255A566ADF8043007F002FE2A465B
:1026100029463046FFF7B6FF3046F021FEF710FEA0
:1026200030464FF4A071FEF70DFE04F104084FF0A0
:102630007F43A3663146404605F014F86FF012025E
:1026400011463846FFF79EFF01A93846ADF8045001
:1026500007F0DFFD4046394605F004F8204602B099
:10266000BDE8F08180FE01089C0302080404020812
:102670007047000030B5164D2C68BFF35B8F14F027
:1026800001048FB020D128461AF03BFEE0B13F2371
:102690000993104B0893104B104911480A940122DA
:1026A000CDE906430423CDE903320A230093CDE9A3
:1026B0000B44CDE901440594FFF726FF09481BF0C0
:1026C00083FD28461AF029FE05480FB030BD00BF33
:1026D000A4150020CC0E0208D80E02089C0E020899
:1026E000A8150020712600087047000030B5164D6F
:1026F0002C68BFF35B8F14F001048FB020D1284603
:102700001AF0FFFDE0B13F230993104B0893104BE3
:10271000104911480A940122CDE906430423CDE96A
:10272000033214230093CDE90B44CDE90144059411
:10273000FFF7EAFE09481BF047FD28461AF0EDFDB9
:1027400005480FB030BD00BFD4150020D00E0208E0
:10275000DC0E0208AC0E0208D8150020E92600089D
:102760007047000030B5164D2C68BFF35B8F14F036
:1027700001048FB020D128461AF0C3FDE0B13F23F9
:102780000993104B0893104B104911480A940122E9
:10279000CDE906430423CDE9033228230093CDE994
:1027A0000B44CDE901440594FFF7AEFE09481BF048
:1027B0000BFD28461AF0B1FD05480FB030BD00BF33
:1027C00004160020D40E0208E00E0208BC0E020817
:1027D000081600206127000800207047002070477D
:1027E0000EB403B503AB002153F8042B01930AF098
:1027F000ADFB02B05DF804EB03B070470CB407B555
:1028000004AB53F8042B01930AF0A0FB03B05DF86E
:1028100004EB02B070470000436C10B5044673B37C
:10282000038F2BB9184B194AC52119481BF0AEFC70
:10283000C38E00EB43035B8C0BB30CF0F2F8238FD9
:10284000012B03D8134B144ACB21EEE7E28E531C25
:102850009BB2092B194688BFA3F10A0104EB410181
:1028600040F63F10498C814209D10A2B04EB420209
:1028700028BF002304EB4303508C58845184204626
:10288000BDE810400BF0D0BFACFE0108B5FE01085A
:1028900060FF0108AAFF0108B8FF01080BF08BBF19
:1028A00038B518BB124B13481C681349B4B12268E1
:1028B00022440260626822440A60A26814440F4BFA
:1028C00000221A8000F02AF8054600F025F80C4B8B
:1028D0001C600C4B1D600C4B188007E00B4B036019
:1028E0000B4B0B600B4B1C68002CE8D138BD00BFB4
:1028F00034160020381600203C1600204016002018
:10290000102401201824012014240120E80E0208BC
:10291000E40E0208F00E02080020704700487047DD
:102920004416002010B5FFF7E1FE044C2060FFF7CD
:1029300019FF6060FFF79EFEA06010BD44160020E6
:1029400010B5002404600C6014601C6010BD70475A
:1029500010B54FF4AE7104461AF0D1FC204610BDFC
:1029600010B50446D0F8580100F013F82046BDE831
:10297000104009F021BC000010B50446FFF756FDD9
:10298000014B2360204610BD940002080022026023
:1029900070477047704704387047704710B5102172
:1029A00004461AF0ACFC204610BDA0F10400F5E787
:1029B00010B500228260044AC16002F1080420328E
:1029C0000460426010BD00BFE000020870470000D4
:1029D00010B5034B03600446FFF7CBFD204610BD46
:1029E0001001020810B50446FFF7F2FF20469821B7
:1029F0001AF085FC204610BD10B50446FFF7D0FD47
:102A0000014B2360204610BD10010208FFF7B2BD44
:102A1000F02070474FF4A07070472920FFF74EB8A0
:102A20002820FFF74BB808B5FFF71CF8CA20FFF7BE
:102A300045F8C320FFF726F80820FFF723F85020B9
:102A4000FFF720F8CF20FFF739F80020FFF71AF83A
:102A5000C120FFF717F83020FFF714F8ED20FFF73B
:102A60002DF86420FFF70EF80320FFF70BF8122073
:102A7000FFF708F88120FFF705F8E820FFF71EF8B8
:102A80008520FEF7FFFF0020FEF7FCFF7820FEF711
:102A9000F9FFCB20FFF712F83920FEF7F3FF2C20C7
:102AA000FEF7F0FF0020FEF7EDFF3420FEF7EAFF0F
:102AB0000220FEF7E7FFF720FFF700F82020FEF7DF
:102AC000E1FFEA20FEF7FAFF0020FEF7DBFF00201F
:102AD000FEF7D8FFB120FEF7F1FF0020FEF7D2FF8E
:102AE0001B20FEF7CFFFB620FEF7E8FF0A20FEF717
:102AF000C9FFA220FEF7C6FFC020FEF7DFFF1020AF
:102B0000FEF7C0FFC120FEF7D9FF1020FEF7BAFF85
:102B1000C520FEF7D3FF4520FEF7B4FF1520FEF7D2
:102B2000B1FFC720FEF7CAFF9020FEF7ABFF3620AB
:102B3000FEF7C4FFC820FEF7A5FFF220FEF7BEFF98
:102B40000020FEF79FFFB020FEF7B8FFC220FEF77F
:102B500099FFB620FEF7B2FF0A20FEF793FFA720E9
:102B6000FEF790FF2720FEF78DFF0420FEF78AFF77
:102B70002A20FEF7A3FF0020FEF784FF0020FEF7C7
:102B800081FF0020FEF77EFFEF20FEF77BFF2B206A
:102B9000FEF794FF0020FEF775FF0020FEF772FF9E
:102BA0000120FEF76FFF3F20FEF76CFFF620FEF7D7
:102BB00085FF0120FEF766FF0020FEF763FF062079
:102BC000FEF760FF2C20FEF779FFC820FEF7C4FF58
:102BD0002620FEF773FF0120FEF754FFE020FEF7EA
:102BE0006DFF0F20FEF74EFF2920FEF74BFF24203C
:102BF000FEF748FF0C20FEF745FF0E20FEF742FFD0
:102C00000920FEF73FFF4E20FEF73CFF7820FEF73D
:102C100039FF3C20FEF736FF0920FEF733FF132073
:102C2000FEF730FF0520FEF72DFF1720FEF72AFFE5
:102C30001120FEF727FF0020FEF724FFE120FEF71A
:102C40003DFF0020FEF71EFF1620FEF71BFF1B2096
:102C5000FEF718FF0420FEF715FF1120FEF712FF04
:102C60000720FEF70FFF3120FEF70CFF3320FEF7A1
:102C700009FF4220FEF706FF0520FEF703FF0C20A8
:102C8000FEF700FF0A20FEF7FDFE2820FEF7FAFE01
:102C90002F20FEF7F7FE0F20FEF7F4FE1120FEF7BF
:102CA0000DFFC820FEF758FF2920FEF707FFBDE8FB
:102CB00008402C20FEF702BF08B5FEF7D3FE032123
:102CC000D320FEF717FF80B208BD10B5C4B20222B0
:102CD00003212046FEF77CFE0A20FEF7C1FE2046B7
:102CE00000220321FEF774FEBDE810400220FEF72B
:102CF000B7BE38B50446E4B2FEF768FE00212046B0
:102D0000FEF77EFE012105462046FEF779FE40EAE9
:102D1000052080B238BD10B5C4B240212046FEF770
:102D20006FFE030607D54C212046FEF769FE0038EA
:102D300018BF012010BD01224B212046FEF748FE9E
:102D4000204600224B21FEF743FE0020F2E773B538
:102D50000423C4B20E461546D7210DEB03022046CC
:102D6000FEF768FE019B1BBA1A0DC3F30B233280DA
:102D700020462B8001224B21FEF72AFE00224B2108
:102D80002046FEF725FE02B070BD000010B50A4BCC
:102D90001A78904204460DD0597888420AD00AB178
:102DA00041B901229C54FEF711FE2046BDE81040B7
:102DB000FFF78BBF10BD00BF5016002010B5C4B286
:102DC00009212046FEF71CFE40F00100C2B2092195
:102DD0002046BDE81040FEF7FBBD10B5C4B2092186
:102DE0002046FEF70DFE092100F0FE022046BDE858
:102DF0001040FEF7EDBD38B5C4B20D4620460A219D
:102E0000FEF7FEFD40EA0502D2B220460A21BDE8E7
:102E10003840FEF7DDBD07B50190FEF7D8FD0198FB
:102E20001F21FFF7E8FF019803B05DF804EBFFF7FF
:102E3000C5BF38B5C4B20D4620460A21FEF7E0FDF5
:102E400020EA0502D2B220460A21BDE83840FEF74A
:102E5000BFBD10B50446FFF7C0FF20461F21BDE8E7
:102E60001040FFF7E6BF10B5C0B20C460B21FEF7CD
:102E7000C7FD204010BD1F21FFF7F5BF0A46C0B2B5
:102E80000B21FEF7A5BD1F21FFF7F8BF38B5C4B26F
:102E90000D4620461721FEF7B3FD20EA0502D2B207
:102EA00020461721BDE83840FEF792BD70B5C4B288
:102EB000064604212046FEF7A3FD042100F0FB0294
:102EC00005462046FEF784FD3046F021FFF7DEFF81
:102ED00005F0F80220460421FEF77AFD4922202160
:102EE0002046FEF775FD0220FEF7BAFD20460122BE
:102EF0002121FEF76DFD20469A224121FEF768FD53
:102F0000204601224A21FEF763FD204601224B2183
:102F1000FEF75EFD204600224B21FEF759FD2046BC
:102F200001225621FEF754FD204601225821FEF7CA
:102F30004FFD204601224021FEF74AFD2046FF2298
:102F40000B21FEF745FDBDE870400220FEF788BD6D
:102F5000054BD3F8882042F47002C3F888204FF064
:102F600000629A60704700BF00ED00E008B50B4BAF
:102F70001A6842F400721A601A6842F480621A6099
:102F80001A6842F480721A60032000F02FF80020C3
:102F9000FFF724F8FEF7EEFD002008BD003C0240DC
:102FA000034A044B11681B780B441360704700BF41
:102FB0005416002078000020014B1868704700BFAD
:102FC0005416002038B50446FFF7F6FF631C1CBFFB
:102FD000054B1B78054618BFE418FFF7EDFF431BB0
:102FE000A342FAD338BD00BF780000200749CA6861
:102FF00022F4E0620302120403F4E063120C1343B0
:1030000043F0BF6343F40033CB60704700ED00E052
:10301000164B30B5DC68C4F30224C4F10703251D48
:10302000042B28BF0423062D4FF0FF358CBF033C33
:10303000002405FA03F321EA0303A54022EA05026E
:10304000A340002843EA0203ACBF00F16040084AF5
:103050004FEA0313B8BF00F00F00DBB2AABF00F5C0
:103060006140135480F8003330BD00BF00ED00E034
:1030700014ED00E0002807DB044A4109012300F0B9
:103080001F00834042F82130704700BF00E100E09C
:1030900010B5044650B1437903F0FF0213B9027131
:1030A000FEF788FD01236371002010BD0120FCE7BD
:1030B00010B5044630B390F8393003F0FF021BB965
:1030C00080F83820FEF78EFD22686168022384F8BC
:1030D0003930136823F440330B431360536BA168FA
:1030E00023F007030B435363136CE16823F47F530E
:1030F00023F03F030B43136400200123E06384F8B3
:10310000393010BD0120FCE770477047036870B587
:103110005E681D68F207044614D5E90512D51A68E1
:1031200022F480721A60C26B42F00102C263012273
:103130009A60042380F83930002380F838304369DE
:1031400003B19847B20616D5AB0414D523681A68A4
:1031500022F400521A6020229A60E36B43F00203CB
:10316000E363042384F83930002384F8383063693A
:103170000BB120469847300716D5290514D523688A
:103180001A6822F400621A6008229A60E36B43F026
:103190000403E363042384F83930002384F83830CF
:1031A00063690BB12046984772070BD56B0509D5AB
:1031B00023681A6822F480621A6004229A6020460A
:1031C000FFF7A2FFB00714D5A90512D523681A6826
:1031D00022F400721A6002229A60E36BE363012317
:1031E00084F83930002384F8383023690BB1204645
:1031F0009847F20613D5EB0411D523681A6822F418
:1032000080521A6010229A60E36BE363012384F812
:103210003930002384F838302046FFF776FF70BD40
:10322000F0B590F83830012B4FF002032BD001227B
:1032300080F8393080F8382000EB0113D3E90742D9
:103240005D6A184F44EA0242093C012C9CBF05F01C
:103250007F431A434FEA0116036888BF42EA0562BA
:1032600099B9596A39400A435A62012C82699A61B4
:1032700003D8426A22F07F429A62012380F83930F3
:10328000002380F838301846F0BDD96939400A4328
:10329000DA618219012C92691A619CBF25F07F4581
:1032A0001D62EAE7F0FFFC002DE9F74FDFF8C0915F
:1032B0006D4A00230D6801249C4004EA050CAC43D0
:1032C00040F0B9804D6805F003044FEA4308032637
:1032D000671E06FA08F6012F6FEA060634D88768DB
:1032E00007EA060ECF6807FA08F747EA0E07876075
:1032F000476827EA0C0EC5F300179F4047EA0E0700
:103300004760C76807EA060E8F6807FA08F747EABA
:103310000E07022CC76019D14FEAD30A00EB8A0AC4
:1033200003F0070BDAF820704FEA8B0B4FF00F0E0B
:103330000EFA0BFE27EA0E0E0F6907FA0BF747EAA3
:103340000E07CAF8207001E0032CDAD1076804FAEE
:1033500008F437403C4315F4403F04606BD04FF015
:10336000000ACDF804A0D9F84460404C46F48046E9
:10337000C9F84460D9F8446006F480460196019E7D
:1033800023F0030606F1804606F59C3603F0030E93
:10339000D6F808804FEA8E0E0F2707FA0EF7A042E4
:1033A00028EA07074ED004F58064A0424CD004F50B
:1033B0008064A0424AD004F58064A04248D004F55D
:1033C0008064A04246D004F58064A04244D004F555
:1033D0008064A04242D004F58064A04240D004F54D
:1033E0008064A0423ED004F58064A0420CBF092452
:1033F0000A2404FA0EF43C43B46094686FEA0C06A5
:10340000EF0254BF34404CEA04049460D468AF0225
:1034100054BF34404CEA0404D4605468AF0354BF32
:1034200034404CEA040454601468ED0354BF344043
:103430004CEA040414600133102B7FF43BAF03B05B
:10344000BDE8F08F5446D4E70124D2E70224D0E748
:103450000324CEE70424CCE70524CAE70624C8E702
:103460000724C6E70824C4E7003C014000000240EE
:10347000003802400369194214BF01200020704740
:103480000AB1816170470904FBE7436901EA03025D
:1034900021EA030141EA02418161704701684B69F9
:1034A00013F480634FF0000210D06FF480634B611F
:1034B0002023026380F83D3080F83E20036C80F8C2
:1034C0003C2043F004030364012070471846704712
:1034D0002DE9F84606460F4691461D464FEA114A29
:1034E0003368BAF1010F0CBF5C699C6927EA0404D8
:1034F000A4B2B4FA84F46409A14501D0002025E007
:103500006A1CEED0FFF758FD089BC01AA84201D8EC
:10351000002DE5D13368BAF1010F0CBF5B699B69DF
:1035200027EA03039BB2B3FA83F35B099945D7D12A
:1035300000232022336386F83D2086F83E30326C2B
:1035400086F83C3042F0200232640120BDE8F88663
:103550002DE9F04104460F461646984625686869ED
:1035600027EA000080B2B8B16B695A0516D52B68FE
:1035700043F400732B606FF480636B61202200239F
:10358000236384F83D2084F83E30226C42F004022C
:10359000226484F83C300120BDE8F081731CDED049
:1035A000FFF70AFDA0EB0800B04201D8002ED5D1EC
:1035B00023685A6927EA020292B2002ACED0002379
:1035C0002022236384F83D2084F83E30226C42F0B0
:1035D0002002DDE770B504460D46164623685B6998
:1035E0001B0601D5002070BD2046FFF757FFC8B964
:1035F0006A1CF3D0FFF7E0FC801BA84201D8002D25
:10360000ECD123685B6913F08003E7D120222363A8
:1036100084F83D2084F83E30226C84F83C3042F03F
:10362000200222640120DEE72DE9F04315460268FE
:1036300085B0DDE90C789946136843F48073136014
:103640000E463B46CDF8008000224FF001110446A3
:10365000FFF73EFF236838B11B68DB0502D54FF446
:103660000073236403200AE006F0FE061E61194978
:1036700043463A462046FFF76BFF18B1012005B0DC
:10368000BDE8F083236803905A6903929B69039312
:10369000424639462046039BFFF79CFF40B1236C0E
:1036A000042B01BF2268136843F400731360E5E73D
:1036B000B9F1010F236802D1EDB21D61DFE72A0ADB
:1036C0001A61394642462046FFF784FF0028E6D1BA
:1036D0002368F1E7020001002DE9FF479A460368DD
:1036E00015461A6842F480621A601A68DDE90C789F
:1036F00042F480721A600E463B46CDF800800022EC
:103700004FF001110446FFF7E3FE236848B11B6840
:10371000DB0502D54FF400732364032004B0BDE839
:10372000F0875FFA86F906F0FE061E612A494346D5
:103730003A462046FFF70CFF08B10120EEE7236868
:1037400003905A6903929B69039342463946204687
:10375000039BFFF73FFF40B1236C042B01BF22689E
:10376000136843F400731360E7E7BAF1010F2368AD
:103770001AD1EDB242461D6139462046FFF72AFFB5
:1037800002460028E8D121680B6843F480730B607F
:103790002046CDF800803B464FF00111FFF798FE20
:1037A000226860B11368B3E72A0A1A6139464246B3
:1037B0002046FFF70FFF0028CED12368D9E749F054
:1037C00001031361044943463A462046FFF7C0FE11
:1037D000003818BF0120A1E70200010070B50446BF
:1037E0000D46164623685B695B0701D5002070BD56
:1037F0002046FFF753FEC8B96A1CF3D0FFF7DCFB85
:10380000801BA84201D8002DECD123685B6913F01E
:103810000403E7D12022236384F83D2084F83E305E
:10382000226C84F83C3042F0200222640120DEE762
:1038300070B504460D46164621684B6913F04003E7
:1038400001D0002010E04A69D2060ED56FF01002B8
:103850004A612022236384F83D2084F83E30226CA4
:10386000226484F83C30012070BDFFF7A5FB801B6B
:10387000A84201D8002DDFD123685B6913F0400313
:10388000DAD12022236384F83D2084F83E30226C74
:1038900042F02002E4E7000070B5044608B90120B8
:1038A00070BD90F83D3003F0FF021BB980F83C205A
:1038B000FEF7BAF9242384F83D3023681A6822F011
:1038C00001021A601A6842F400421A601A6822F46F
:1038D00000421A6000F072FE3F4B65689D4294BF43
:1038E0003E4B3F4B98428CBF00230123002BD6D187
:1038F0002268394E51683B4BB0FBF3F321F03F0196
:103900001943B542516088BF4FF49676116A88BF5B
:10391000734321F03F0184BF4FF47A76B3FBF6F393
:1039200001330B431362D169431E2B4821F44F41ED
:10393000854221F0FF0132D86D0040F6FC70B3FBE8
:10394000F5F30133034242D0C3F30B031943D161B2
:10395000D4E907301168034321F0C0010B43136021
:103960009168D4E9030321F40341034321F0FF01EB
:103970000B439360D4E90530D168034321F0FF0184
:103980000B43D360136843F001031360002020232E
:10399000206484F83D30206384F83E0080E7A0680E
:1039A00050B905EB4505B3FBF5F30133C3F30B0346
:1039B0007BB143F40043C9E719206843B3FBF0F33C
:1039C0000133C3F30B0323B143F44043BEE70423A5
:1039D000BCE70123BAE700BFA08601007F841E0078
:1039E000FF083D0040420F002DE9F7430446994689
:1039F0000C9E0F469046FFF7DFFA94F83D30202BDF
:103A0000054603D0022003B0BDE8F08300903C4996
:103A1000192301222046FFF75BFD0028F2D194F81C
:103A20003C30012BEED02068012384F83C30036841
:103A3000D9075EBF036843F001030360036823F402
:103A400000630360212384F83D30402384F83E3036
:103A5000002323640A9B6362BDF82C306385638D69
:103A60002385284BE362CDE900654B464246394643
:103A70002046FFF7D9FD00282AD00120C3E7FFF731
:103A8000A9FD40B1236C042B01BF2268136843F4E5
:103A900000731360F1E7636A27681A4612F8011B86
:103AA00039616262628D218D013A92B262857A69D2
:103AB000481E80B2520720850AD548B15A783A612B
:103AC00002336362638D013B02399BB221856385BA
:103AD000238D2A4631462046002BD0D1FFF77EFEAB
:103AE0000028CFD12268136843F4007313602023A9
:103AF00084F83D3084F83C0084F83E0083E700BF42
:103B0000020010000000FFFF2DE9F043044687B0DB
:103B10009946109F0D469046FFF74EFA94F83D30B7
:103B2000202B064604D00225284607B0BDE8F083C6
:103B300000907A49192301222046FFF7C9FC00288A
:103B4000F1D194F83C30012BEDD02068012384F8AA
:103B50003C300368DB075EBF036843F0010303608A
:103B6000036823F400630360222384F83D3040237C
:103B700084F83E30002323640E9B6362BDF83C3022
:103B80006385638D2385664BE3622946CDE9007624
:103B90004B4642462046FFF79FFD054608B10125EA
:103BA000C2E7228D2368B2B902905A6902929A69DB
:103BB0000292029A1A6842F400721A60DFF8648175
:103BC000238D002B2CD1202284F83D2084F83C301A
:103BD00084F83E30A8E7012A0AD11A6822F48062EC
:103BE0001A6003905A6903929A690392039AE1E773
:103BF000022A0ED11A6822F480621A601A6842F40E
:103C000000621A6004905A6904929B690493049BB1
:103C1000D4E705905A6905929B690593059BCDE70A
:103C2000032B56D8012B15D1324639462046FFF7D3
:103C3000FFFD0028B3D123681A69636A1A70636AAA
:103C400001336362238D013B2385638D013B9BB26E
:103C50006385B5E7022B00963B464FF000024146D4
:103C6000204619D1FFF734FC002898D123681A6840
:103C700042F400721A601A69636A1A70626A531C0D
:103C80006362238D013B2385638D013B9BB263857A
:103C900023681B695370D2E7FFF71AFC024600281D
:103CA0007FF47DAF2368196821F480611960196978
:103CB000636A1970636A009601336362238D013B66
:103CC0002385638D013B9BB2638541463B4620467D
:103CD000C8E7324639462046FFF7AAFD00287FF4A0
:103CE0005EAF23681A69636A1A70628D616A013A6D
:103CF00092B24B1C628522686362238D5069013B3E
:103D00009BB2400723857FF55BAF032B02BF13688F
:103D100023F48063136013694B7090E70200100076
:103D20000000FFFF0400010010B590F83D30202B8B
:103D3000DCB216D1242380F83D3003681A6822F0E3
:103D400001021A605A6A22F010025A625A6A11433A
:103D500059621A6842F001021A6080F83D40002062
:103D600010BD0220FCE730B590F83D30202BDCB2CE
:103D700016D10268242380F83D30136823F0010334
:103D80001360556A4FF6F0732B40194389B25162A4
:103D9000136843F00103136080F83D40002030BDFC
:103DA0000220FCE70068D1F800C0D20184328318F9
:103DB0002DE9F043C6685D684C68D1F8189005F4A9
:103DC00070455D60C5680CF10107C5F30B45C6F38E
:103DD0000B463D44264445EA06455D60C668CD680D
:103DE000C6F30A062E449D6805F470459D60C768B9
:103DF0008D68C7F30A0701353D4445EA06459D60D5
:103E00001D690E6925F007051D614FF0000E1E614A
:103E10009D6991F8327091F83180C3F818E091F8FB
:103E2000305045EA096545EA082545EA07459D61A0
:103E30005D6925F0FF055D614D695D61DD6925F412
:103E4000E06525F00705DD61D1E907573D43DD61F8
:103E50009D6A4D6AC3F828E09D62FEB1013E062EC0
:103E60001ED8104DAD5DDE6A06F0E026DE62A4EBE2
:103E70000C048E6AC96A6C436E43033444EA0644F8
:103E8000DC621C6B24F4FF6424F007041C631963D8
:103E9000835843F001038350BDE8F0830425E2E733
:103EA0000125E0E75401020838B50446002863D034
:103EB00090F8A13003F0FF021BB980F8A020FDF7B5
:103EC0000FFF022384F8A13023689A6922F0704220
:103ED0009A61D4E901200243E068996902432069AC
:103EE00002430A439A619A68244960690A409A60C9
:103EF0009A6842EA0042A06902439A60DA68E0697F
:103F00000A40DA60DA6842EA0042206A0243DA6074
:103F10001A69606A0A401A611A6942EA0042A06A94
:103F200002431A615A690A405A615A69E16A42EACF
:103F30000142216B0A435A61DA6A94F8350094F819
:103F4000361002F07F42DA62DD6A94F834202A43A8
:103F500042EA002242EA0142DA625A6B42F0060269
:103F60005A639A6942F001029A6100200123C4F861
:103F7000A40084F8A13038BD0120FCE700F800F06F
:103F800070477047036870B59E6B5D6B720704469F
:103F900014D5690712D55A6B22F004025A63042221
:103FA000DA63D0F8A43043F00103C0F8A430002352
:103FB00080F8A12080F8A030FFF7E2FFB20716D505
:103FC000AB0714D523685A6B22F002025A6302220F
:103FD000DA63D4F8A4301343C4F8A430042384F87B
:103FE000A130002384F8A0302046FFF7C9FFF00776
:103FF00010D5E9070ED523685A6B22F001025A63E7
:104000000122DA63002384F8A12084F8A03020463E
:10401000FDF786FA320711D52B070FD523685A6BA7
:1040200022F008025A630822DA63012384F8A130DF
:10403000002384F8A0302046FFF7A3FF70BD2DE9D0
:10404000F04190F8A030012B06460F4694464FF001
:1040500002001FD04FF0010886F8A08086F8A1006A
:1040600034240D4604FB02640FCD38340FC40FCD49
:104070000FC40FCD0FC42B6823603046624639460B
:10408000FFF790FE33680020C3F8248086F8A180F3
:1040900086F8A000BDE8F08190F8A030012B4FF029
:1040A000020312D080F8A13003685A6B22F001029B
:1040B0005A63074A11645A6B42F001025A630123A2
:1040C00080F8A130002380F8A0301846704700BF68
:1040D000006801402DE9F341044640B30368DD0761
:1040E00010D4236898075BD423681A0700F19D80D9
:1040F00023685B0700F1BD80A069002840F024819F
:1041000000202CE08D4B9A6802F00C02042A07D0A4
:104110009A6802F00C02082A0BD15B68590208D594
:10412000864B1B689A03DCD56368002BD9D101202C
:1041300015E06368814DB3F5803F13D12B6843F4DC
:1041400080332B60FEF738FF7C4E054633689B03B7
:10415000C7D4FEF731FF401B6428F7D9032002B013
:10416000BDE8F081B3F5A02F04D12B6843F4802380
:104170002B60E3E72A6822F480322A602A6822F45E
:1041800080222A60002BDDD1FEF716FF06462B6841
:104190009F03A6D5FEF710FF801B6428F7D9DDE743
:1041A000664B9A6812F00C0F07D09A6802F00C0266
:1041B000082A11D15B685E020ED4604A13689D071D
:1041C00002D5E368012BB2D11368216923F0F8030B
:1041D00043EAC103136087E7E268594BB2B1012299
:1041E0001A60FEF7E9FE554D06462B68980707D57D
:1041F0002B68226923F0F80343EAC2032B6073E7BC
:10420000FEF7DAFE801B0228EFD9A7E71A60FEF757
:10421000D3FE4A4E0546336899077FF565AFFEF732
:10422000CBFE401B0228F6D998E76269444B82B165
:104230000122C3F8802EFEF7BFFE404E0546736F85
:104240009F073FF555AFFEF7B7FE401B0228F6D992
:1042500084E7C3F8802EFEF7AFFE384E0546736F35
:1042600098077FF545AFFEF7A7FE401B0228F6D959
:1042700074E7324B1A6C12F0805228D101921A6CFA
:1042800042F080521A641B6C03F080530193019B2F
:1042900001272C4D2B68D9051BD5A368274D012B71
:1042A00027D12B6F43F001032B67FEF785FE234ECA
:1042B000054641F28838336F9B0739D5002F3FF40C
:1042C0001BAF1E4A136C23F08053136414E70027BE
:1042D000DFE72B6843F480732B60FEF76DFE064624
:1042E0002B68DA05D9D4FEF767FE801B0228F7D9C0
:1042F00034E7052B04D12B6F43F004032B67D0E781
:104300002A6F22F001022A672A6F22F004022A672C
:10431000002BCAD1FEF750FE41F2883806462B6FBB
:104320009807CBD5FEF748FE801B4045F7D915E727
:10433000FEF742FE401B4045BDD90FE70038024062
:104340000000474200700040364DAB6803F00C039C
:10435000082B3DD0344B002202281A662BD1FEF7E1
:104360002BFE06462B6899011FD4D4E9073213436C
:10437000626A43EA8213E26A43EA0263A26A52086B
:10438000013A43EA02436B60274B264D01221A662D
:10439000FEF712FE04462B689A013FF5B1AEFEF718
:1043A0000BFE001B0228F6D9D8E6FEF705FE801B9F
:1043B0000228D7D9D2E6FEF7FFFD04462B689B0101
:1043C0007FF59EAEFEF7F8FD001B0228F6D9C5E684
:1043D00001283FF4C4AE6B68E26903F480019142A6
:1043E0007FF4A5AE216A03F03F028A427FF49FAEBC
:1043F000616A47F6C0721A40B2EB811F7FF497AE34
:10440000A26A520803F44031013AB1EB024F7FF443
:104410008EAEE26A03F07063B3EB026F3FF470AEEE
:1044200085E600BF0038024000004742134908B546
:104430008B6803F00C03042B1CD0082B1CD14A689A
:104440004B68496813F4800314BF0D480D48C1F34D
:10445000881118BF002302F03F02A1FB0001FBF707
:1044600067FF064B5B68C3F3014301335B00B0FB9E
:10447000F3F008BD0248FCE70248FAE700380240C2
:1044800000127A000024F4002DE9F0410D460446A4
:1044900010B90120BDE8F081434B1A6802F00F0209
:1044A0008A4228D321688F072DD4C80740D43E4BB9
:1044B0001A6802F00F02AA4265D8226851076BD42D
:1044C000130707D5394A2169936823F4604343EA07
:1044D000C1039360FFF7AAFF344B354A9B68C3F3CF
:1044E0000313D35CD840334B1860334B1868FDF787
:1044F00075FD0020CEE7CAB21A701B6803F00F03E7
:104500008B42C6D1CEE7294B11F0040F1EBF9A682B
:1045100042F4E0529A600E0742BF9A6842F4604249
:104520009A609A68A06822F0F00202439A60BCE7A1
:1045300062681E4B012A1CD11B6813F4003FA8D0EF
:104540001A4EB36823F003031343B360FEF734FD40
:1045500041F288380746B368626803F00C03B3EB96
:10456000820FA4D0FEF728FDC01B4045F3D90320DD
:1045700090E7911E01291B6802D813F0007FDEE747
:1045800013F0020FDBE7EAB21A701B6803F00F03A7
:10459000AB427FF47EAF90E70449E0688B6823F478
:1045A000E05303438B608BE7003C0240003802403D
:1045B0003C010208740000207C000020044B054AE6
:1045C0009B68C3F38223D35C034A1068D8407047CA
:1045D000003802404C010208740000200F230360E1
:1045E0000B4B9A6802F0030242609A6802F0F002F4
:1045F00082609A6802F4E052C2609B68DB0803F4B0
:10460000E0530361034B1B6803F00F030B6070471B
:1046100000380240003C0240036813F0430FF7B536
:10462000044640F08D80236813F00C0F45D08B4B6F
:104630008B4D00221A67FEF7BFFC06462B689F00D1
:1046400000F1D08021684E0715D5D4E90403D5F8D0
:1046500088201B0602F0E04243EA80131343C5F8AA
:104660008830D5F88C30226A23F4F853013A43EAB3
:104670000223C5F88C300D0714D5794AA369D2F806
:10468000881020691B0701F0706143EA80130B4317
:10469000C2F88830D2F88C30616A23F440330B437F
:1046A000C2F88C306D4B6E4E01221A67FEF784FC07
:1046B00005463368980040F19C8023689B0634D5FA
:1046C00000230193664B674D1A6C42F080521A64C6
:1046D0001B6C03F080530193019B2B6843F48073A0
:1046E0002B60FEF769FC06462B68D90540F18880EF
:1046F0005B4DA26A2B6F13F4407340F08880A36A6D
:1047000003F44072B2F5407F554A40F0A3809168AF
:1047100023F0704021F4F81120F4407001439160BF
:10472000116FC3F30B030B431367206810F01000E5
:104730001FBF4D4B94F82C20C3F8E02100204FE020
:10474000464B474E00229A66FEF736FC0546336814
:104750001F013FD42168CD0741BFD4E901231B07C6
:1047600043EA8213C6F88430880715D53C4AE368CB
:10477000D2F8840065681B0600F0E04043EA851328
:104780000343C2F88430D2F88C00E36920F01F00A4
:10479000013B0343C2F88C3049060AD5E3686268DE
:1047A0001B0643EA8213A26843EA02732C4AC2F84A
:1047B00084302A4B2A4E01229A66FEF7FDFB0546FD
:1047C00033681A013FF52FAFFEF7F6FB401B0228B6
:1047D000F6D904E0FEF7F0FB401B0228B7D903200E
:1047E00003B0F0BDFEF7E8FB801B02287FF626AF82
:1047F000F5E7FEF7E1FB401B02287FF65AAFEEE734
:10480000FEF7DAFB801B02287FF66EAFE7E702F4C3
:10481000407293423FF473AF2B6F104A0121C2F8EC
:10482000401E23F440730021C2F8401E2B672B6FFB
:10483000DA077FF564AFFEF7BFFB41F28837064623
:104840002B6F9B073FF55BAFFEF7B6FB801BB842B3
:10485000F6D9C4E7916821F4F81160E700004742F7
:1048600000380240007000400010474238B50D4645
:104870000446C8B190F82C3003F0FF021BB980F851
:104880002D20FDF73FFB022384F82C30211D2068EA
:1048900000F020FD62682068294600F053FD0123E6
:1048A00084F82C30002038BD0120FCE770B590F86A
:1048B0002C30022B05460E46D8B212D000F0FB0475
:1048C000012C0FD1022385F82C30286800F070FDF0
:1048D0003368022B06BF052385F82C3085F82C4061
:1048E000002070BD0120FCE738B590F82C30022B79
:1048F0000446D8B20DD094F82C30012BDDB209D18A
:104900000223206884F82C3000F078FD84F82C50C5
:10491000002038BD0120FCE72DE9F3471F468946FA
:1049200090460446FEF748FB0A9D3D442D1AFEF7CB
:1049300043FB264B1E68C6F3CB366E438246019678
:104940002268936839EA03030CBF0123002343451F
:1049500001D100202EE07B1CF3D0FEF72DFBA0EB55
:104960000A00A84229D323685A6822F0E0025A605C
:104970006268B2F5827F0AD1A268B2F5004F02D018
:10498000B2F5806F03D11A6822F040021A60A26A61
:10499000B2F5005F07D11A6822F400521A601A6853
:1049A00042F400521A60012384F85130002384F845
:1049B0005030032002B0BDE8F087019B002B019B23
:1049C00003F1FF3308BF00250193B9E7740000200D
:1049D00070B586B00B460092039116460221012263
:1049E0000446FFF799FF039B054628B1636D43F02A
:1049F00020036365032514E0114A1068114AB0FBD7
:104A0000F2F04FF47A72504362680590B2F5827FFB
:104A10000AD100962A4680212046FFF77DFF002814
:104A2000E4D1284606B070BD059B002BF9D0059B4C
:104A3000013B059323689B681B06F5D4F1E700BF93
:104A40007400002000366E0137B50B464168B1F5A1
:104A5000827F044622D18168B1F5004F02D0B1F5C2
:104A6000806F07D125682868B1F5806F20F040007D
:104A7000286009D00092802100222046FFF74CFFD9
:104A800030B9002003B030BD009201210022F4E7CC
:104A9000636D43F0200363650320F3E70092012177
:104AA0000022EBE710B50446002855D0436A002BDE
:104AB0004ED14268B2F5827F00D0C3610023A36269
:104AC00094F8513003F0FF0223B984F850202046B7
:104AD000FDF7E2F92168A068A269022384F8513049
:104AE0000B6823F040030B60636800F4044003F498
:104AF00082730343E06800F400600343206900F020
:104B000002000343606900F00100034302F40070F7
:104B10000343E06900F038000343206A00F080009E
:104B20000343A06A00F4005003430B60636A120C55
:104B300003F0100302F004021A434A60CB6923F425
:104B40000063CB6100200123606584F8513010BD03
:104B50000023C0E90433B1E70120F8E72DE9F3476A
:104B60001F4690F85030012B04460D46904600F049
:104B7000A680012380F85030FEF71EFA94F85130D9
:104B8000012B82465FFA83F940F09680002D67D0B2
:104B9000B8F1000F64D0032384F85130002363651B
:104BA000C4E91033A4F83680A363A387E387A3681E
:104BB00026682563B3F5004FA4F8348007D1336825
:104BC00023F040033360336843F480433360336839
:104BD00062685B065EBF336843F040033360E3689E
:104BE000B3F5006F43D112B1B8F1010F07D135F819
:104BF000023BF3602563E38E013B9BB2E386E38EC9
:104C00009BB2B3B9524639462046FFF7E1FE002871
:104C10004FD1A36833B901932368DA6801929B6886
:104C20000193019B636DDBB9012284F85120994601
:104C300016E022689368980705D5236B33F8021BAA
:104C4000D1602363D7E7FEF7B7F9A0EB0A00B842BB
:104C5000D5D3791CD3D0012384F851304FF0030908
:104C6000002384F85030484602B0BDE8F08712B106
:104C7000B8F1010F08D12B783373236B0133236311
:104C8000E38E013B9BB2E386E38E9BB2002BB9D04F
:104C900023689A68920703D5226B12781A73ECE79F
:104CA000FEF78AF9A0EB0A00B842EDD37B1CEBD0EB
:104CB000D1E720236365ACE74FF00209D0E74FF05E
:104CC0000209D0E72DE9F7431E4690F85030DDF891
:104CD0002880012B04460D46914600F0E680012312
:104CE00080F85030FEF768F994F851306268012B73
:104CF0000746D9B20AD0B2F5827F40F0D480A368CB
:104D0000002B40F0D080042940F0CD800DB9012067
:104D10006FE0B9F1000FFAD0002EF8D094F85130BE
:104D2000C4F83890042B1CBF052384F851300023AD
:104D30006365C4E910332368E687E6861968A687A9
:104D4000490658BF1968256358BF41F04001A6863F
:104D500058BF1960E168B1F5006F50D10AB1012E5A
:104D600007D135F8022BDA60E38E2563013B9BB255
:104D7000E3860125E38E9BB263B9E38F9BB24BB907
:104D80003A4641462046FFF723FE00287AD02023EA
:104D90006365BCE721688B689A070DD5E38E9BB2EB
:104DA00053B14DB1236B33F8022BCA602363E38EFA
:104DB000013B9BB2E38600258A6812F001020CD009
:104DC000E38F9BB24BB1A36BC96823F8021BA363AB
:104DD000E38F013B9BB2E3871546FEF7EDF8C01B5E
:104DE0004045C7D3B8F1FF3FC4D0012384F8513008
:104DF0000320002384F8503003B0BDE8F0830AB1EB
:104E0000012E08D12A781A73236B01332363E38EB2
:104E1000013B9BB2E3860125E38E9BB21BB9E38F76
:104E20009BB2002BACD0226893689B070ED5E38E13
:104E30009BB25BB155B1236B1B781373236B0133AA
:104E40002363E38E013B9BB2E386002522689168D1
:104E500011F001010DD0E38F9BB253B1A36BD26867
:104E60001A70A36B0133A363E38F013B9BB2E3870B
:104E70000D46FEF7A1F8C01B4045CDD3B8F1FF3F6A
:104E8000CAD0B2E7A36833B923680190DA68019207
:104E90009B680193019B636D002B7FF438AF012366
:104EA00084F85130A5E70220A3E70220A4E72DE90A
:104EB000F3471E4690F85130012B04468A4690462F
:104EC000DDB240F095804368B3F5827F0ED18368F0
:104ED00063B9042380F85130134600960A46FFF761
:104EE000F1FE0546284602B0BDE8F08794F8503040
:104EF000012B7FD0012384F85030FEF75DF8814606
:104F0000BAF1000F64D0B8F1000F61D0A268C4F804
:104F100038A000270423B2F5004F84F85130C4E9CB
:104F2000107767652368A4F83E80A4F83C80276367
:104F3000A786E78607D11A6822F040021A601A682D
:104F400022F480421A601A6857065EBF1A6842F05F
:104F500040021A60E368F3B1E38F9BB2FBB12368B0
:104F60009A68D20738D5DA68A36B23F8022BA363BB
:104F7000E38F013B9BB2E387EEE723689A68D00793
:104F80001AD5A26B1B7B1370A36B0133A363E38F52
:104F9000013B9BB2E387E38F9BB2002BEDD14A46E6
:104FA00031462046FFF750FDF8B9636D83B9012201
:104FB00084F851201D460BE0FDF7FEFFA0EB090031
:104FC000B042E8D3711CE6D0012384F851300325A8
:104FD000002384F8503085E7FDF7EEFFA0EB0900D1
:104FE000B042B9D3731CB7D0EEE720236365DCE78A
:104FF0000225EDE7022575E77047000090F83D3087
:10500000012B30D1022380F83D300368DA6842F08A
:105010000102DA60154A93421AD0B3F1804F17D0DB
:10502000A2F57C42934213D002F5806293420FD0E6
:1050300002F5806293420BD002F57842934207D08A
:1050400002F57052934203D0A2F59432934204D1F8
:105050009A6802F00702062A03D01A6842F0010299
:105060001A60002070470120704700BF0000014017
:105070007047704770477047036870B5DD681E69F8
:10508000B10704460DD5AA070BD56FF002021A61CD
:10509000012202779B699B0769D0FFF7EAFF002393
:1050A0002377710710D56A070ED523686FF00402C5
:1050B0001A61022222779B6913F4407F20465CD05C
:1050C000FFF7D7FF0023237733070FD528070DD528
:1050D00023686FF008021A6104222277DB699907BE
:1050E000204650D0FFF7C5FF00232377F20610D5E6
:1050F000EB060ED523686FF010021A6108222277A2
:10510000DB6913F4407F204643D0FFF7B2FF002352
:105110002377F00708D5E90706D523686FF0010269
:105120001A612046FCF71AFD320608D52B0606D573
:1051300023686FF080021A61204600F0CAF87006FA
:1051400008D5690606D523686FF040021A6120462B
:10515000FFF791FFB20622D5AB0620D523686FF08A
:10516000200220461A61BDE8704000F0B1B8FFF798
:105170007FFF2046FFF77EFF91E7FFF779FF20468C
:10518000FFF778FF9EE7FFF773FF2046FFF772FFF8
:10519000AAE7FFF76DFF2046FFF76CFFB7E770BD8A
:1051A000334A0368904212D0B0F1804F0FD0A2F57D
:1051B0007C4290420BD002F58062904207D002F50B
:1051C0008062904203D002F57842904219D14A6839
:1051D00023F070031343264A904229D0B0F1804F48
:1051E00026D0A2F57C42904222D002F58062904205
:1051F0001ED002F5806290421AD002F578429042A9
:1052000016D01C4A904213D002F5806290420FD013
:1052100002F5806290420BD0A2F59832904207D0FE
:1052200002F58062904203D002F58062904203D181
:10523000CA6823F4407313434A6923F0800313437D
:1052400003608B68C3620B688362094B984203D08A
:1052500003F58063984201D10B6903630123436125
:105260000369DB0742BF036923F001030361704751
:10527000000001400040014010B5044630B390F8F2
:105280003D3003F0FF021BB980F83C20FFF7B4FE6D
:105290000223206884F83D30211DFFF781FF0123A0
:1052A00084F84630002084F83E3084F83F3084F89B
:1052B000403084F8413084F8423084F8433084F838
:1052C000443084F8453084F83D3010BD0120FCE7BF
:1052D000704770472DE9F041D1E90738D1E9012C39
:1052E000D1E90376D1E90554D1F824E0096843EA0D
:1052F000080391B943EA0E03134343EA0C03016820
:105300003B4333432B4321F4FF41234321F07F01EF
:105310000B4303600020BDE8F081016843EA0E03FF
:1053200021F4F8410B43036042EA0C0341683B431C
:1053300033432B4321F4FF42234322F07F021343E4
:105340004360E7E7CB6803F1FF3C4B69F0B50F68BA
:105350004C688E680D698969013B1B05013C013E63
:10536000013D0139013F240136022D04090643EABB
:105370000C335AB93B432343826833432B430B43DB
:1053800002F07042134383600020F0BD826822F473
:10539000700222F470421A43826044EA0603C26833
:1053A0003B432B430B4302F070421343C360EBE7D4
:1053B00070B5044615460269D1E900300343C86858
:1053C000920D43EA4023920513438A68013A43EA67
:1053D00042132361FDF7F0FD0646A36913F0200395
:1053E00001D1184603E06B1CF7D00DB9032070BD46
:1053F000FDF7E2FD801BA842EFD9F7E7436923F4EC
:105400007F5323F03E0343EA41014161002070478E
:1054100008B54FF0E0231B6901F00CFE012803D012
:10542000BDE8084000F0DEBB08BD0000EFF30583D7
:105430002BB9064B186828B901221A6070476FF023
:10544000050070474FF0FF30704700BFB8180020CC
:1054500010B5EFF305845CB9084B1A68012A0AD12C
:10546000074AD47702221A6001F05EFB204610BD85
:105470006FF00500FBE74FF0FF30F8E7B8180020A9
:1054800000ED00E0F0B587B00B4600210591EFF389
:105490000584CCB9C0B16AB395698D4208BF18259F
:1054A000691E3729AC462AD85168C90727D45669DE
:1054B0006EB1B408D2E9027E116857B1BEF15F0F38
:1054C00002D9126902B1E6B9059807B0F0BD80248F
:1054D000F0E7BEF1000FF7D11269002AF4D105AA56
:1054E000CDE900C2A2B201F0F2FA01281CBF0023EC
:1054F0000593E9E711464FF0180C8024EFE72046AA
:10550000E3E7CDE901270095224601F0A8FA0590CE
:10551000DAE710B5EFF3058424B910B101F062FCAD
:10552000204610BD6FF00500FBE7F7B504460E46B8
:105530001546EFF305821AB10024204603B0F0BDF2
:105540000028F9D08842F7D3E5B1D5E90237BBB1DD
:105550004F2FF1D901282AD103210091114600F0E3
:10556000EAFC04460028E7D0DEB100231A461946BB
:1055700000F096FD012814D0204601F0D1F8DBE7B9
:10558000002FD9D1012C05D103220021204600F0A3
:1055900020FDE6E72046314600F064FD0446002881
:1055A000CAD055B92946204601F094F8C5E71A46F5
:1055B00000F036FD04460028BED02D68F2E713B592
:1055C0000C4608B3EFF30583B3B1E9B901AA019121
:1055D00001F031F8012814D1019B13B9002002B069
:1055E00010BD4FF0E0234FF08052C3F8042DBFF3FD
:1055F0004F8FBFF36F8FF1E700F05AFF0128EDD016
:105600002CB96FF00200EAE76FF00300E7E76FF0F4
:105610000100E4E713B510B3EFF30583B3B1002441
:1056200001A9019400F051FE012815D1019B13B985
:10563000002002B010BD4FF0E0234FF08052C3F8BD
:10564000042DBFF34F8FBFF36F8FF1E71A46194652
:1056500000F026FD0128EBD06FF00200E9E76FF0C3
:105660000300E6E7F7B505460E461446EFF3058757
:105670001FB10025284603B0F0BD0028F9D000294D
:10568000F7D0DAB1D2E9023283B14F2AF1D92269D7
:10569000002AEED066694D43AE42EAD3009700F08F
:1056A0004AFC05460028E4D0246811E0002AE0D135
:1056B0002369002BDDD16369002BDAD12846002253
:1056C000314600F086FC05460028D2D0002CEBD1F4
:1056D0002146284600F0FEFFCCE773B51C46EFF3E9
:1056E0000586C6B118B311B30BBB01AA019300F034
:1056F0008AFD012818D1019B13B9002002B070BDAA
:105700004FF0E0234FF08052C3F8042DBFF34F8FCA
:10571000BFF36F8FF1E750B149B13346224600F035
:10572000BFFC0128E9D02CB96FF00200E6E76FF06A
:105730000300E3E76FF00100E0E737B51C46EFF345
:105740000583C3B110B309B304BB01AA019400F0EF
:1057500072FF012817D1019B13B9002003B030BD9F
:105760004FF0E0234FF08052C3F8042DBFF34F8F6A
:10577000BFF36F8FF1E748B141B1224600F0F9FD68
:105780000128EAD02CB96FF00200E7E76FF00300C0
:10579000E4E76FF00100E1E7034B0360034B0B60AC
:1057A00080231360704700BF58180020581600204F
:1057B000034B0360034B0B604FF48073136070471F
:1057C000BC1C0020BC18002010B5104B1A461B68EA
:1057D0008342FBD354681119884201BF41681046C7
:1057E00009195160446801198B420CD108490968B4
:1057F0008B4203D05968214441601968016090428E
:1058000018BF106010BD1946F8E700BF341D012015
:105810001C1D00202DE9F041044601F0CBF942495E
:10582000424D0B680BBB424A56071FBFD01D20F0EC
:10583000070002F58032131A0CBF4FF48033024682
:1058400013443C4E083B23F0070300207060326095
:10585000C3E90000981AC2E900300B60364B1860AB
:10586000364B18604FF000432B602E68264255D10E
:10587000002C46D004F1080360071CBF23F0070387
:105880000833002B4AD02D4F3C689C4246D3294A0E
:1058900015686868984204D2D5F800C0BCF1000FC2
:1058A00015D10968A94239D02968D2F80080116061
:1058B000C21A102A12D9E81841070BD04FF0500332
:1058C00083F31188BFF36F8FBFF34F8FFEE72A4634
:1058D0006546DEE742606B60FFF776FF6A6816494F
:1058E000A41A1643164A08683C6000232B6013680C
:1058F0006E60844203F1010338BF0C60136008F14D
:10590000080401F0FBF963070AD04FF0500383F35A
:105910001188BFF36F8FBFF34F8FFEE70024F0E7CE
:105920002046BDE8F08100BF1C1D0020201D012085
:10593000201D0020341D0120281D0120241D0120D0
:105940002C1D012010B5044690B31A4A50F8043CAF
:105950001268134208D14FF0500383F31188BFF34C
:105960006F8FBFF34F8FFEE750F8081C41B14FF027
:10597000500383F31188BFF36F8FBFF34F8FFEE7A0
:1059800023EA020340F8043C01F014F90A4A54F8EF
:10599000043C1168A4F108000B441360FFF714FFE6
:1059A000064A1368BDE810400133136001F0A6B940
:1059B00010BD00BF201D0120241D0120301D01202D
:1059C00000F108034FF0FF32C0E902234360036196
:1059D00000230360704700230361704743684B60F6
:1059E0009A688A609A685160996003680861013317
:1059F0000360704730B50C68631C0AD103695A68AC
:105A00004A6091608B6059600368086101330360EC
:105A100030BD00F10802134652681568A542FAD954
:105A2000EDE7D0E9011203698A605160596881424B
:105A300008BF5A60002202611A68013A1A601868A9
:105A40007047000008480068006880F308884FF03D
:105A5000000080F3148862B661B6BFF34F8FBFF3C6
:105A60006F8F00DF00BF000008ED00E0DFF80C00E2
:105A7000016841F4700101607047000088ED00E0AA
:105A800082B0002301930D4B1B68013308D04FF007
:105A9000500383F31188BFF36F8FBFF34F8FFEE77F
:105AA0004FF0500383F31188BFF36F8FBFF34F8F15
:105AB000019B002BFCD002B0704700BF800000208B
:105AC0004FF0807340F8043C074B40F80C3C21F049
:105AD00001016FF0020340F8081C40F8202C40F848
